:020000040000FA
:100000000C945D000C9485000C9485000C94850084
:100010000C9485000C9485000C9485000C9485004C
:100020000C9485000C9485000C9485000C9485003C
:100030000C9485000C9485000C9485000C9485002C
:100040000C9402030C9485000C9485000C9485009C
:100050000C9485000C9485000C9485000C9485000C
:100060000C9485000C9485000000000024002700FB
:100070002A0000000000250028002B0004040404CE
:100080000404040402020202020203030303030342
:10009000010204081020408001020408102001021F
:1000A00004081020000000080002010000030407FB
:1000B0000000000000000000630411241FBECFEF09
:1000C000D8E0DEBFCDBF11E0A0E0B1E0E6E5F9E0A9
:1000D00002C005900D92A031B107D9F721E0A0E14F
:1000E000B1E001C01D92A233B207E1F710E0CDE507
:1000F000D0E004C02197FE010E94A304CC35D107B3
:10010000C9F70E944C030C94A9040C94000090E0E1
:10011000FC01EC55FF4F2491FC01E057FF4F349157
:10012000FC01E458FF4FE491EE23C9F0222339F09B
:10013000233001F1A8F4213019F1223029F1F0E047
:10014000EE0FFF1FEE58FF4FA591B4918FB7F894B3
:10015000EC91611126C030953E233C938FBF0895EA
:100160002730A9F02830C9F0243049F78091800069
:100170008F7D03C0809180008F7780938000DFCFD8
:1001800084B58F7784BDDBCF84B58F7DFBCF809125
:10019000B0008F778093B000D2CF8091B0008F7D78
:1001A000F9CF3E2BDACFCF93DF9390E0FC01E057FD
:1001B000FF4F249184589F4FFC0184918823D1F0F4
:1001C00090E0880F991FFC01E859FF4FA591B49169
:1001D000FC01EE58FF4FC591D49161110EC09FB73D
:1001E000F8948C91E22FE0958E238C932881E22362
:1001F000E8839FBFDF91CF9108958FB7F894EC917A
:10020000E22BEC938FBFF6CF3FB7F89480911601A5
:1002100090911701A0911801B091190126B5A89BE2
:1002200005C02F3F19F00196A11DB11D3FBFBA2F88
:10023000A92F982F8827BC01CD01620F711D811D48
:10024000911D42E0660F771F881F991F4A95D1F7CD
:100250000895AF92BF92CF92DF92EF92FF920F93E9
:100260001F93CF93DF936C017B018B01040F151F4C
:10027000EB015E01AE18BF08C017D10759F06991B4
:10028000D601ED91FC910190F081E02DC601099518
:10029000892B79F7C501DF91CF911F910F91FF90C5
:1002A000EF90DF90CF90BF90AF900895089590E0C9
:1002B00080E008958F929F92AF92BF920F931F9309
:1002C000CF93DF93CDB7DEB7A1970FB6F894DEBF1B
:1002D0000FBECDBF19A2423008F44AE08E010F5D77
:1002E0001F4F842E912CB12CA12CA50194010E94AA
:1002F0008104E62FB901CA01EA3044F5E05DD80176
:10030000EE938D01232B242B252B79F790E080E0B1
:10031000109769F0FD0101900020E9F73197AF01D6
:100320004A1B5B0BBD018AE191E00E942901A19665
:100330000FB6F894DEBF0FBECDBFDF91CF911F91F6
:100340000F91BF90AF909F908F900895E95CD7CFA9
:10035000CF93DF93EC0160E08E810E94870061E023
:100360008E810E94870060E08E810E9487008BE86A
:1003700091E00197F1F7DF91CF910895CF92DF924D
:10038000EF92FF920F931F93CF93DF936C017C0149
:1003900087E0E80EF11CD0E0C0E0062F10E0B801C5
:1003A0000C2E02C0759567950A94E2F76170F7010B
:1003B00081917F010E9487002196C430D10579F791
:1003C000C601DF91CF911F910F91FF90EF90DF90C9
:1003D000CF900C94A801CF92DF92EF92FF920F93EF
:1003E0001F93CF93DF93EC01F62E642F8C810E9434
:1003F00087008D818F3F19F060E00E9487000F2DEC
:1004000010E08F8584FF25C06E0187E0C80ED11CE7
:10041000F12CE12CB8010E2C02C0759567950A9459
:10042000E2F76170F60181916F010E948700FFEF92
:10043000EF1AFF0A88E0E816F10461F7CE01DF91B8
:10044000CF911F910F91FF90EF90DF90CF900C9480
:10045000A801B80184E0759567958A95E1F7CE010A
:100460000E94BE016F2DCE01DF91CF911F910F91A0
:10047000FF90EF90DF90CF900C94BE0140E061E0E0
:100480008AE191E00E94EB018BE39FE10197F1F794
:100490000895CF93DF93823029F4909129019860D9
:1004A0009093290180932D0110922E0180E4809376
:1004B0002F0180E18093300180E58093310161E07C
:1004C00080911E010E94D30080911F018F3F19F07F
:1004D00061E00E94D30061E0809120010E94D3007E
:1004E000CAE1D1E09E012A5131408091290184FD69
:1004F0000BC084E090E021962817390744F461E0AE
:100500008E810E94D300EECF88E090E0F4CF8BE3A1
:100510009DE00197F1F760E080911E010E94870045
:1005200060E0809120010E94870080911F018F3F31
:1005300019F060E00E9487006091290164FD3DC0D0
:1005400063E08AE191E00E94BE01CBE4D6E4CE01F3
:100550000197F1F763E08AE191E00E94BE012197E3
:10056000F1F763E08AE191E00E94BE0183E592E049
:100570000197F1F762E08AE191E00E94BE0160918B
:100580002901606240E08AE191E00E94EB0184E091
:1005900080932A0140E06CE08AE191E00E94EB0147
:1005A0000E943E0282E080932B0140E066E08AE1F7
:1005B00091E0DF91CF910C94EB01606240E08AE121
:1005C00091E00E94EB018BE496E40197F1F76091D2
:1005D0002901606240E08AE191E00E94EB0183E53D
:1005E00092E00197F1F760912901606240E08AE1B1
:1005F00091E00E94EB01C3CF41E00E94EB0181E05A
:1006000090E008951F920F920FB60F9211242F932E
:100610003F938F939F93AF93BF93809112019091DB
:100620001301A0911401B09115013091110123E043
:10063000230F2D3758F50196A11DB11D20931101EF
:100640008093120190931301A0931401B0931501AC
:100650008091160190911701A0911801B091190194
:100660000196A11DB11D8093160190931701A093CF
:100670001801B0931901BF91AF919F918F913F9154
:100680002F910F900FBE0F901F90189526E8230F03
:100690000296A11DB11DD2CF789484B5826084BD2D
:1006A00084B5816084BD85B5826085BD85B5816076
:1006B00085BD80916E00816080936E0010928100F4
:1006C00080918100826080938100809181008160AF
:1006D0008093810080918000816080938000809170
:1006E000B10084608093B1008091B00081608093FC
:1006F000B00080917A00846080937A0080917A00C3
:10070000826080937A0080917A00816080937A0081
:1007100080917A00806880937A001092C10082E014
:100720000E94490243E050E06CE071E08AE191E010
:100730000E94290161E085E00E94D30061E086E02B
:100740000E94D30061E087E00E94D30060E08EE069
:100750000E94D30061E088E00E94D30061E089E05C
:100760000E94D30061E08AE00E94D30061E08BE048
:100770000E94D30061E08CE00E94D30061E08DE034
:100780000E94D30061E088E00E94870061E089E078
:100790000E94870061E08AE00E94870061E08BE0B0
:1007A0000E94870061E08CE00E94870061E08DE09C
:1007B0000E9487000E943E0208E010E090E4B92EFB
:1007C000C8EFC00FC09310016C2F617085E00E94CC
:1007D00087006C2F627086E00E9487006C2F647027
:1007E00087E00E948700C8E0D0E00C171D0709F4DD
:1007F00058C0AC2E60E08C2F0E948700B0927C0025
:1008000080917A00806480937A0080917A0086FDDE
:10081000FCCFC0907800D09079000D2C000CEE0831
:10082000FF084AE0C701B601F7FE0EC041E06DE2E5
:100830008AE191E00E94EB0166277727CB016C19D2
:100840007D098E099F094AE00E945A010E94040115
:100850002B013C0188E8C82E83E1D82EE12CF12C35
:100860000E9404016419750986099709683E73405E
:1008700081059105A8F321E0C21AD108E108F10829
:1008800088EE480E83E0581E611C711CC114D1040F
:10089000E104F10429F761E08A2D0E9487000E949B
:1008A0003E022196CE30D10509F09FCF0F5F1F4F3A
:1008B0000E30110509F084CFC0E0D0E02097F1F3AD
:1008C0000E940000FBCFEAE1F1E01382128284E093
:1008D00091E09183808383E184838FEF858382E13C
:1008E000868384E087838FE0808780E1818781E150
:1008F00082871386148615861686178681E00C94E7
:100900004902A1E21A2EAA1BBB1BFD010DC0AA1FA2
:10091000BB1FEE1FFF1FA217B307E407F50720F068
:10092000A21BB30BE40BF50B661F771F881F991FE3
:100930001A9469F760957095809590959B01AC012C
:10094000BD01CF010895EE0FFF1F0590F491E02D3A
:100950000994F894FFCF00000000FC022901570120
:0609600056014C43440067
:107E0000112484B714BE81FFF0D085E080938100F7
:107E100082E08093C00088E18093C10086E0809377
:107E2000C20080E18093C4008EE0C9D0259A86E02C
:107E300020E33CEF91E0309385002093840096BBD3
:107E4000B09BFECF1D9AA8958150A9F7CC24DD24C4
:107E500088248394B5E0AB2EA1E19A2EF3E0BF2EE7
:107E6000A2D0813461F49FD0082FAFD0023811F036
:107E7000013811F484E001C083E08DD089C08234E0
:107E800011F484E103C0853419F485E0A6D080C0E4
:107E9000853579F488D0E82EFF2485D0082F10E0AE
:107EA000102F00270E291F29000F111F8ED06801E7
:107EB0006FC0863521F484E090D080E0DECF843638
:107EC00009F040C070D06FD0082F6DD080E0C81688
:107ED00080E7D80618F4F601B7BEE895C0E0D1E017
:107EE00062D089930C17E1F7F0E0CF16F0E7DF06D8
:107EF00018F0F601B7BEE89568D007B600FCFDCFD4
:107F0000A601A0E0B1E02C9130E011968C91119780
:107F100090E0982F8827822B932B1296FA010C0160
:107F200087BEE89511244E5F5F4FF1E0A038BF0790
:107F300051F7F601A7BEE89507B600FCFDCF97BE46
:107F4000E89526C08437B1F42ED02DD0F82E2BD052
:107F50003CD0F601EF2C8F010F5F1F4F84911BD097
:107F6000EA94F801C1F70894C11CD11CFA94CF0C13
:107F7000D11C0EC0853739F428D08EE10CD085E9AC
:107F80000AD08FE07ACF813511F488E018D01DD067
:107F900080E101D065CF982F8091C00085FFFCCF94
:107FA0009093C60008958091C00087FFFCCF809118
:107FB000C00084FD01C0A8958091C6000895E0E648
:107FC000F0E098E1908380830895EDDF803219F02E
:107FD00088E0F5DFFFCF84E1DECF1F93182FE3DFCA
:107FE0001150E9F7F2DF1F91089580E0E8DFEE27F6
:047FF000FF270994CA
:027FFE00040479
:00000001FF
